:10000000C8EF00F0F76A180FF66E000EF722000E28
:10001000F86E0900F55012000C2053330000F76A07
:10002000320FF66E000EF722000EF86E0900F55042
:1000300012000C2053340000F76A4C0FF66E000ECD
:10004000F722000EF86E0900F55012000C56657587
:10005000696C6C657A206170707579657A0A000048
:10006000EA6A120EE96EEF500EE0080E016E006AA9
:10007000002EFED7012EFBD7190E006E002EFED7E4
:1000800000D0EF2EF2D7000CF80E996EFF0E966E90
:10009000878200008780000084CF18F08790000ED0
:1000A000966E18C001F057EF00F08794EDD701C0AD
:1000B00018F001BEFBD716A0879416B08784000005
:1000C00087920000879017C084FF00008780030E8E
:1000D000006E002EFED700D08790000C000E966EAA
:1000E000879487928790320E126EBADF166A3C0EA2
:1000F000176EDBDF670E006E002EFED700D0166A8B
:100100000C0E176ED2DF670E006E002EFED700D0E9
:10011000166A010E176EC9DF020E126EA1DF166A93
:10012000060E176EC2DFE7EF00F0132C01D003D0EC
:10013000400E146E01D0146A010E125C1426145085
:100140008009156E166A176EB0DFC7EF00F0115008
:100150000C0A05E0060A0BE0020A0EE012D0166A4D
:10016000010E176EA2DF020E126E7ADF10D0010EA2
:10017000126E020E136ED9D7166A100E176E95DF27
:1001800006D0010E166E11C017F08FDF00D0000CE4
:10019000F86AD09EEA6AE96A7E868A0EAF6E020E1F
:1001A0007F6EA60EAC6E900EAB6EC150C00BC16ED2
:1001B000070EB46E056A066A0C6A010E0D6E0E6AB1
:1001C000030E0F6EFF0E936E000E9A6E87D79EAAD7
:1001D000FED7AECF0BF00B50050807E1FF0E936E74
:1001E00081CF0DF00F500D140E6E0E500B0A03E070
:1001F0000C0A0CE016D0106A105004DF102A006EB2
:10020000116EA5DF040E105CF7E116D0106A1050D5
:1002100006DF102A006E116E9ADF040E105CF7E103
:100220000BD0106A105008DF102A006E116E8FDF9D
:10023000120E105CF7E100D0640E126E11DFC7D70A
:020240000300B9
:020000040001F9
:06FFF80080F4C4FFF8F7DD
:00000001FF
;PIC18F97J60
;CRC=62EB  CREATED="18-janv.-13 11:47"
