:100000001CEF00F045C047F044C046F047C003F085
:1000100046C0E9FF47C0EAFFEF5204E0462AD8B4E1
:10002000472AF4D74450465C006E45504758036E4B
:1000300000C001F043EF00F0F86AD09EEA6AE96A76
:100040007E868A0EAF6E020E7F6EA60EAC6E900E8E
:10005000AB6EC150C00BC16E070EB46E056A066A66
:10006000436AEA6A250EE96EE906E92A9EAAFED7E6
:10007000AECFEFFF0D0EEF5CF8E1EF6A436A456A21
:10008000250E446EBFD70150435C24E2036A4350FF
:10009000070F016E000E032201C044F003C045F0BB
:1000A000036A4350250FE96E000E0320EA6EEFCF7E
:1000B00046F04650400806E246505A0803E34650D0
:1000C000200901D0465045C0EAFF44C0E9FFEF6E69
:1000D000432AD5D7EA6A070EE96E000EEF1008E052
:1000E000EF509EA8FED7AD6EE92AD8B4EA2AF5D71C
:1000F0000D0E9EA8FED7AD6E0A0E9EA8FED7AD6E61
:04010000B0D7030071
:020000040001F9
:06FFF80080F4C4FFF8F7DD
:00000001FF
;PIC18F97J60
;CRC=89E9  CREATED="18-janv.-13 09:53"
